:100006007FE87E031200E61200F17F887E1312005D
:10001600E6E5086401703F7509017F887E131200CA
:10002600E6AF09120072750A03750BE8B2A7E50977
:1000360075F00AA4FFAEF01200E6E50B150B700290
:10004600150AD3E50B9400E50A940050DF0509E58F
:1000560009C3940940C4E508B40207E4FF1200721C
:0C006600C2A7E508B403A3750801809E42
:030003000200F800
:0300F800050832C6
:10007200EFB40900504390007FF82828730200B8BB
:100082000200B802009C0200A00200A40200A80222
:1000920000AC0200B00200B4801C75907E22759004
:1000A2003C2275901822E4F5902275908122759079
:0A00B200C3227590E7227590FF222B
:0B00E600EF1FAC0670011E4C70F622EC
:1000BC00D3EF9400EE940040147D6E7C00ED1D7027
:0D00CC00011CED4C70F7EF1F70E61E80E385
:0100D9002204
:0700F100D288D2A8D2AF2291
:030000000200DA21
:0C00DA00787FE4F6D8FD75810B0200066B
:00000001FF
